S02B0000435253465F64656B6F646F76616E695F756B617A616B5F6C6F645F47616461735F444D502E737265A8
S11300000C9452000C946F000C946F000C946F00CD
S11300100C946F000C946F000C946F000C946F00A0
S11300200C946F000C946F000C946F000C946F0090
S11300300C94D0000C946F000C946F000C946F001F
S11300400C946F000C946F000C946F000C947A0065
S11300500C946F000C946F000C946F000C946F0060
S11300600C946F000C946F000C946F000C946F0050
S11300700C946F000C946F000C946F000C946F0040
S11300800C946F000C946F000C946F000C946F0030
S11300900C946F000C946F000C946F000C946F0020
S11300A00C946F0011241FBECFEFCDBFDFE7DEBF7E
S11300B010E7A0E0B0E7E8E2FDE002C005900D9291
S11300C0AC31B107D9F720E7ACE1B0E701C01D922C
S11300D0AB3AB207E1F70E9449050C9492060C94DE
S11300E000009091040895FFFCCF8093020880E003
S11300F090E008951F920F920FB60F9211248F93E0
S11301009F93EF93FF938091000890915070911109
S113011002C0883CD1F4E091507091E09E0F90931E
S11301205070F0E0E357FF4880838091507089312C
S113013018F01092507009C080915070883129F4E1
S11301401092507081E080934F70FF91EF919F91D6
S11301508F910F900FBE0F901F901895E0E0F4E080
S113016082E0828381E085838183E0E0F8E08EEBA6
S113017090E0808791878681806886838581806806
S11301808583868180648683089588ED84BFE0E654
S1130190F0E0108284BF90E2908784BF11820895BA
S11301A01F920F920FB60F9211248F939F9381E0A9
S11301B08093060B80914A7090914B7001968093C6
S11301C04A7090934B709F918F910F900FBE0F9038
S11301D01F901895E0E0FBE085818E7F85838091F8
S11301E04A7090914B7021E025830895E0E0FBE094
S11301F081E0808311828093050B27EE33E0209306
S11302000C0B30930D0B30E130930104E0E4F9E082
S113021097E8918391E3908324E02093710492E022
S11302209093A000E0E0F6E045E042834AE0458395
S113023080878083E1E6F4E040E8408340E4408343
S113024040E24083308338E030832083908390837E
S1130250809366040895E0E0FAE08FE493EC86A3CB
S113026097A385EA9EE080A791A782A793A784A776
S113027095A783E7818387E0808392E09093E605E6
S11302808093410408950F931F93CF93DF938E3A85
S1130290910508F4C6C08E5A910996958795EC018C
S11302A0CB55D14FCC348DE1D80710F0CBE4DDE150
S11302B0C53A8EE0D80720F4C0910C70D0910D702F
S11302C08E01055A1E40663D81E0780730F526ED23
S11302D031E0261B370BA4E6B0E00E9483062EE033
S11302E031E040E050E00E946106029FC001039F9C
S11302F0900D129F900D11249C01369527953695EB
S11303002795ABE7B4E10E9483069695879525EA85
S11303103EE0281B390BAE0193C0683C83E07807AC
S113032050F528EC33E0261B370BA4E6B0E00E941E
S1130330830622EF31E040E050E00E946106029F14
S1130340C001039F900D129F900D11249C013695BE
S1130350279536952795ABE7B4E10E9483069695D9
S113036087959E01281B390B253A8EE0380708F43F
S11303705DC0AE0165C06E3C83E0780708F45AC0E6
S1130380693785E0780740F59B012D5C3340A4E68E
S1130390B0E00E9483062BEA31E040E050E00E9486
S11303A06106029FC001039F900D129F900D1124BE
S11303B09C013695279536952795ABE7B4E10E94C5
S11303C0830696958795AE01481B590B453A8EE0F6
S11303D0580798F19E0134C09B0128573540A4E684
S11303E0B0E00E9483062CE231E040E050E00E943D
S11303F06106029FC001039F900D129F900D11246E
S11304009C013695279536952795ABE7B4E10E9474
S113041083069695879545EA5EE0481B590B9E0135
S11304200FC045EA5EE025EA3EE00AC0AE0125EAD7
S11304303EE006C0AE019E0103C09E0145EA5EE0B7
S113044080910A7090910B708217930750F4B90150
S1130450681B790B6B30710580F09C01265F3F4F60
S11304600CC02817390748F4BC01621B730B6B30AE
S1130470710518F09C012A503109809108709091FF
S113048009708417950750F4BA01681B790B6B3017
S1130490710580F0AC01465F5F4F0CC048175907E7
S11304A048F4BC01641B750B6B30710518F0AC018A
S11304B04A505109E0E0FAE022A733A744A755A720
S11304C0C0930C70D0930D7020930A7030930B700E
S11304D04093087050930970DF91CF911F910F9151
S11304E00895CF93DF938E3A910508F4E1C08E5AB4
S11304F0910996958795C5EADEE0C81BD90BCC3DDA
S113050045E0D40710F4CCEDD5E0C63A5EE0D5075B
S113051020F0C0910670D0910770663D81E07807A5
S113052068F526ED31E0261B370BA4E6B0E00E9407
S113053083062EE031E040E050E00E94610669EC61
S113054078E0629FC001639F900D729F900D11240B
S11305509C013695279536952795ABE7B4E10E9423
S11305608306969587959E01281B390B8C0F9D1F3A
S1130570863A4EE0940708F0A0C0ADC0683C53E052
S1130580750780F528EC33E0261B370BA4E6B0E0B2
S11305900E94830622EF31E040E050E00E946106B1
S11305A085EA9EE0BC016C1B7D0B629FC001639FCA
S11305B0900D729F900D11249C01369527953695C8
S11305C02795ABE7B4E10E948306969587959E0133
S11305D0281B390B8C0F9D1F863A4EE0940708F0B8
S11305E06FC079C06E3C53E0750708F46CC069377E
S11305F085E0780780F59B012D5C3340A4E6B0E0EC
S11306000E9483062BEA31E040E050E00E9461063C
S113061085EA9EE0BC016C1B7D0B629FC001639F59
S1130620900D729F900D11249C0136952795369557
S11306302795ABE7B4E10E948306969587959E01C2
S1130640280F391FAE01481B590BCA01263A5EE038
S11306503507E0F540C09B0128573540A4E6B0E0DB
S11306600E9483062CE231E040E050E00E946106E3
S113067069EC78E0629FC001639F900D729F900DBA
S113068011249C013695279536952795ABE7B4E15F
S11306900E948306969587959E01280F391FAE0107
S11306A0481B590BCA01263A5EE0350790F413C083
S11306B085EA9EE025EA3EE00EC085EA9EE00BC096
S11306C085EA9EE008C0CE019E0105C025EA3EE011
S11306D002C025EA3EE04091047050910570421733
S11306E0530750F4B901641B750B6B30710580F02E
S11306F09A01265F3F4F0CC02417350748F4BA010E
S1130700621B730B6B30710518F09A012A50310982
S113071040910270509103704817590748F4BC0186
S1130720641B750B6B30710570F0CA010A960BC01F
S11307308417950740F4BA01681B790B6B30710577
S113074010F0CA010A97E0E0FAE022A733A784A7D1
S113075095A7C0930670D0930770209304703093CC
S113076005708093027090930370DF91CF91089588
S1130770811107C085EA9EE08093280A9093290A94
S11307800895813031F488E097E08093280A9093AB
S1130790290A089581E080930A0680910A0680FD63
S11307A0FCCF809110069091110680934D70909328
S11307B04E7080914D7090914E7083369C40A8F09D
S11307C020914D7030914E70A4E6B0E00E948306F3
S11307D06854764D844091092EE933E040E050E0BE
S11307E00E94610620934C7002C010924C7080915C
S11307F04C708A3100F180E880936604E5E6F4E009
S113080080E4808380E2808380914C70833378F02D
S113081080E18093650480914C708C3420F088E0F2
S113082080936504089588E080936604089580E1C8
S113083080936604089580E880936504E6E6F4E016
S113084080E4808380E2808380E1808388E0808309
S113085008952BE0629FB00111249B0136952795E2
S113086036952795369527956770FC01E20FF11DA3
S113087020819181892F90E0982F8827822B2281D3
S113088030E033272227822B932B092E000CAA0B4E
S1130890BB0B04C0B695A795979587956A95D2F733
S11308A0977008951F93CF93DF9310E00EC0C12F6C
S11308B0D0E0612F80E990E70E942904CC0FDD1F6E
S11308C0CE5DDF48888399831F5F103180F382E215
S11308D090E7DF91CF911F910895AC01F89418C06F
S11308E06150710920E812C09091430995FFFCCF33
S11308F0FA01E60FF71F9081922321F08EE780938F
S1130900440903C080E78093440926952111ECCF64
S11309106115710529F7789408950E94EA0080E032
S113092090E005C0FC01EF5AFF48108201968C3319
S11309309105C4F380911C7090911D709C01220F4D
S1130940331F280F391FF901EF5AFF481082F901AC
S1130950EE5AFF484FEF4083F901ED5AFF481082E9
S113096018161906ACF49C0121503109A901440F51
S1130970551F240F351FF901EF5AFF481082F90162
S1130980EE5AFF4840E44083F901ED5AFF481082D3
S1130990833191059CF401969C01220F331F820F31
S11309A0931FFC01EF5AFF481082FC01EE5AFF48E6
S11309B020E42083FC01ED5AFF4810826CE370E0D0
S11309C081E590E70E946D042FEF80E792E02150CB
S11309D080409040E1F700C0000020910070309109
S11309E0017080911C7090911D70820F931F8093F1
S11309F01C7090931D700197429738F031952195A2
S1130A00310920930070309301700895CF930E94B0
S1130A10EA0080932070909321700E94EA008093F2
S1130A201E7090931F70C0E080910008883C49F1CB
S1130A300E94EA002091207030912170821B930B58
S1130A40853F914088F30E948D040E94EA008093C0
S1130A502070909321700E94EA0020911E703091C2
S1130A601F70821B930B893B9B40F0F284E08093C0
S1130A7067040E94EA0080931E7090931F70C0E088
S1130A80D3CFCF5FC33380F284E080936504CF91EA
S1130A9008950E94C5000E942B010E94AE000E948E
S1130AA0F6008EE090E78093A7709093A8707894F6
S1130AB00E94EA000E94EA00809348709093497073
S1130AC00E94EA0080934670909347700E94060546
S1130AD00E94EA000E945204FC01C280D380A680D6
S1130AE0B78000851185C285D38586849784E28882
S1130AF0F3880E94EA002091487030914970821B6B
S1130B00930B853F914068F0CF3BD10551F4B5017B
S1130B10C6010E9443010E94EA00809348709093AA
S1130B2049700E94EA002091487030914970821BFC
S1130B30930B853F914068F0C115D74051F4B5013E
S1130B40C6010E9471020E94EA008093487090934B
S1130B50497080914F70882309F46DC010924F70D2
S1130B60E11427E0F20649F580914570811125C012
S1130B700E94EA00809343709093447081E08093D4
S1130B80457080914270811118C081E080936504A2
S1130B9080E090E006C0FC01EF5AFF482FEF20836D
S1130BA001968C339105BCF36CE370E081E590E72A
S1130BB00E946D0481E080934270809145708111A0
S1130BC038C0011587E01807C9F42FEB8216910489
S1130BD0A9F481E08093650480E090E006C0FC0104
S1130BE0EF5AFF482FEF208301968C339105BCF315
S1130BF06CE370E081E590E70E946D040F3B110502
S1130C00C1F48FEB88169104A1F481E0809366040B
S1130C1080E090E005C0FC01EF5AFF481082019685
S1130C208C339105C4F36CE370E081E590E70E9496
S1130C306D040E94CA0380914570813081F40E9442
S1130C40B8030E94EA002091437030914470821BE3
S1130C50930B8035934C00F1109245701DC080E0D9
S1130C600E94B803809142708823B1F081E08093A0
S1130C70660480E090E005C0FC01EF5AFF48108252
S1130C8001968C339105C4F36CE370E081E590E741
S1130C900E946D04109242700E94EA0020914670F6
S1130CA030914770821B930B8135934C08F410CF1D
S1130CB00E94EA0080934670909347700E94060554
S1130CC007CFA1E21A2EAA1BBB1BFD010DC0AA1F50
S1130CD0BB1FEE1FFF1FA217B307E407F50720F0A1
S1130CE0A21BB30BE40BF50B661F771F881F991F1C
S1130CF01A9469F760957095809590959B01AC0165
S1130D00BD01CF010895A29FB001B39FC001A39F6D
S1130D10700D811D1124911DB29F700D811D112430
S10B0D20911D0895F894FFCF22
S1130D280100A50EA50EAE00A50EA50EAE0000008E
S10F0D3800020000000071000000000038
S9030000FC
